:107C000001C002C1112484B7882361F0982F9A70B3
:107C1000923041F081FF02C097EF94BF282E80E0A0
:107C2000DED0EEC185E08093810082E08093C000C9
:107C300088E18093C10086E08093C20080E1809358
:107C4000C4008EE0CCD0259A86E020E33CEF91E0A2
:107C5000309385002093840096BBB09BFECF1D9A85
:107C6000A8954091C00047FD02C0815089F7EE24DD
:107C7000E39435E0D32E41E1C42EA3D0813471F4D6
:107C8000A0D0182FB2D0123811F481E005C01138FD
:107C900011F489E001C083E08DD089C0823411F4F1
:107CA00084E103C0853419F485E0A7D080C0853510
:107CB00039F487D0C82F85D0D82FCC0FDD1F76C0E0
:107CC000863521F484E099D080E0E6CF843609F04F
:107CD00043C077D076D0182F74D0082FA12CBB24A6
:107CE000B3946FD0F50181935F011E13FACF7DD05D
:107CF00084B184B98CB58CBD8CB58CBD053481F450
:107D00004E01A12CBB24B3941A1509F450C0F501FF
:107D100061915F01C40190D0FFEF8F1A9F0AF4CFE9
:107D200083E0FE0187BFE89507B600FCFDCFA0E029
:107D3000B1E0FE018D919D910C01E7BEE895112403
:107D400032961A13F7CFFE01D7BEE89507B600FCAE
:107D5000FDCFC7BEE8952BC08437D9F432D031D0DF
:107D6000F82E2FD0B82E41D08E01F5E4BF1209C0F5
:107D7000C8015AD01FD0FA940F5F1F4FF110F8CFEF
:107D800016C0F80185918F0115D0FA94F110F9CF42
:107D90000EC0853739F429D08EE10CD085E90AD0A0
:107DA0008FE07ACF813511F488E019D01ED080E1C0
:107DB00001D063CF9091C00095FFFCCF8093C600A7
:107DC00008951D9A8091C00087FFFCCF8091C0006C
:107DD00084FD01C0A8958091C6001D9A0895E0E633
:107DE000F0E098E1908380830895EBDF803219F012
:107DF00088E0F5DFFFCF84E1DDCFCF93C82FE1DF4F
:107E0000C150E9F7CF91F1CFFC010A0167BFE895B6
:107E1000112407B600FCFDCF667029F0452B19F43C
:107E200081E187BFE8950895F999FECF92BD81BDA4
:107E3000F89A992780B50895262FF999FECF1FBA91
:107E400092BD81BD20BD0FB6F894FA9AF99A0FBE83
:107E50000196089556657273696F6E3D382E310034
:107E60004F505449424F4F545F435553544F4D5612
:107E700045523D31004465766963653D61746D65C9
:107E800067613332387000465F4350553D313630BC
:107E900030303030304C00424947424F4F543D3132
:107EA000004275696C743A44656320203720323093
:107EB00032303A32323A32373A3531005541525443
:107EC0003D3000424155445F524154453D313135CA
:107ED000323030004C45443D4235004C45445F440F
:107EE0004154415F464C4153483D31004C45445F4D
:107EF00053544152545F464C41534845533D33001F
:027FFE00010977
:0400000300007C007D
:00000001FF
